:020000040800F2
:100000000020001015090308ADC002088563000830
:10001000A9C00208A5C00208A1C002080000000093
:100020000000000000000000000000009DC0020869
:1000300099C002080000000095C002085D61000838
:100040007D0903087D0903087D0903087D0903086C
:100050007D0903087D090308450F01087110010897
:1000600035100108F90F0108BD0F0108DD2E000849
:10007000CD2E0008BD2E0008AD2E00089D2E0008D4
:10008000892E0008752E00087D0903087D090308E4
:1000900099C502087D0903087D090308810F01083D
:1000A0007D0903087D0903087D0903087D0903080C
:1000B0007D0903087D0903087D0903087D090308FC
:1000C0007D0903087D0903087D0903087D090308EC
:1000D0007D0903087D0903087D090308E96100081B
:1000E000090F01087D09030885C002087D0903087E
:1000F0007D0903087D0903087D0903087D090308BC
:100100000000000000000000000000007D0903085E
:100110007D0903087D090308A14A0108854A0108F1
:10012000612E00084D2E0008392E0008252E0008EB
:10013000112E00087D0903080000000000000000E7
:100140007D0903087D0903087D09030800000000FC
:10015000000000000000000000000000000000009F
:1001600000000000000000007D0903087D0903086D
:100170007D090308000000000000000000000000EE
:08018000000000007D090308E6
:1001880001207047F0B58F7A91F809E04D7B0C7C1F
:10019800CA7C334E3B0203F470634EEA030391F8C2
:1001A8000BE085B03F0947EA0E174FEA052CADF87A
:1001B80002708F7BADF800300CF4706E2D0991F849
:1001C8000CC045EA071527024CEA0E0C07F4706EBE
:1001D800CF7BADF804C047EA0E0791F811C091F83B
:1001E80014E0ADF806508D7CADF8087011022409B2
:1001F80001F470611209294344EA0C1442EA0E1210
:10020800ADF80A40ADF80C10ADF80E206C46002190
:1002180040F2765502E034F8023F0131B3F5006F41
:10022800A3F5006224BF93B22380A3F140034FEAF1
:10023800430286FB02E3A3EBE2739BB203F13B02AA
:100248002CBF0827002792B2AA420F449CBF03F58F
:10025800577320F817300729DDD105B0F0BD00BF6E
:1002680056555555F0B4184C23785A1C02F03F02E5
:10027800E118531C22441B257E2603F03F030E7110
:10028800237015717D27C51D07E0E118A84203F109
:1002980001030A7103F03F0313D010F8012BA2F1F8
:1002A8007D010129F1D8591C01F03F01234466184A
:1002B80082F020020131A8421F7101F03F03327120
:1002C800EBD12370F0BC7047A8220020034B00221A
:1002D80083F8442083F84520704700BFA8220020F7
:1002E800054A92F844303F2B05D8D118013381F8DC
:1002F800480082F844307047A8220020F0B58F7A71
:100308008D79CC7ACE790A7C4B7C9FED5C4A4FEA9A
:10031800072C0CF4706C45EA0C053F0107F4706E6D
:1003280003EE905A4FEA042C0D7A240104F4706706
:100338000CF4706C46EA0E0404EE904A45EA0C048C
:1003480005EE104A4C7A16023C43120102F470651D
:1003580005EE904A4A7B0C7B06F4706634432A43C8
:100368001D021B0106EE104A06EE902A03F4706483
:100378008A7BCB7B05F470652A43234307EE102A5A
:1003880007EE903AB8EEC55AF8EEE33AF8EEE55AB9
:1003980025EE045AF8EEE44AB8EEC66AF8EEE66AC4
:1003A800B8EEC77AF8EEE77A65EE845A63EE843AD7
:1003B80064EE844A26EE046A66EE846A27EE047ABE
:1003C80067EE847ABCEEC55ABCEEE34AFCEEE55A09
:1003D80087B015EE102AFCEEE44ABCEEC66AFCEEC5
:1003E800E66ABCEEC77AFCEEE77A15EE907A8DEDF8
:1003F800014ABDF80410ADF80C2017EE104A17EEAC
:10040800902A14EE90EA16EE106A16EE905AADF89D
:100418000E700DF10A07ADF81440ADF81620ADF8CE
:1004280008100B46ADF80AE0ADF81060ADF81250B0
:100438003A4606AC01E032F8023BA3F54873B3F53F
:10044800AF6F0CD8A242F6D1831E0E3001E037F808
:10045800021B23F8021F9842F9D107B0F0BD084BE0
:100468001B78162BF9D1074A0749B2F888300133AF
:100478009BB2A2F888300B8007B0F0BDABAA2A3F28
:1004880094570020A8220020985700204FF480534A
:1004980083827047012380F84530704770B4046840
:1004A800037B2268022101FA03F31A4213D042693E
:1004B8000A495C2000FB02124FF6FE76506852890A
:1004C800C5680068296831402960C168D24392B282
:1004D8000A40C260636070BC704700BF3865002086
:1004E80030B40A4B1D7875B1094B002003EBC505E4
:1004F8001A6899885062D4682143D160083323F878
:10050800040CAB42F4D130BC704700BF186800201F
:100518001C68002010B40268047B11680223A34001
:10052800194209D00649406800240C7001684FF64A
:10053800FE742140016053605DF8044B704700BFB2
:100548001D39002038B50F4CD4F88C300546ABB1B6
:10055800184610F0CCFC024694F890000A4B40B9BB
:10056800187884F8902018B115B1002228461A701E
:1005780038BD002AF4D101211970F2E7024B18782E
:10058800F1E700BFA822002058360020F8B5194B23
:10059800194D1A7885F891000AB903221A7017487C
:1005A800C5F8940000262727A0F14004314687713A
:1005B800C67110F0CCFA04F150030522184684F8ED
:1005C800562084F85760C5F8983026F009FD04F1E4
:1005D8004803184684F84E7084F84F60C5F88C308C
:1005E80026F05AFDD5F88C0010F081FC85F89000B3
:1005F800F8BD00BF6C320020A82200202462002031
:1006080030B410230B4C0B700B4A21780023322591
:10061800C2F8A45082F89C30C2F8A03029B9074B20
:1006280007491960022323700123C07A82F8A83091
:1006380030BCABE747450020A8220020D04100206D
:100648006D02000838B508230B700C4B0C4C0D4A92
:100658000D4D1D600D49C07A11600023322584F8C4
:10066800A930C4F8AC30C4F8B030C4F8B450FFF7BF
:100678008DFF074B1B68C4F8B83038BD7C2C0020B0
:10068800A8220020B4440020D5020008E90200088E
:10069800545D002014F01AB938B5224C94F8BC30D7
:1006A80094F8BD201844C0B2904284F8BC0005D329
:1006B800801AC0B29042FBD284F8BC00362014F0F5
:1006C80023F994F8BC502544232095F8C43303EB50
:1006D8004303234493F8C010FFF7DCFF95F8C433B5
:1006E80003EB43032344242093F8C110FFF7D2FF00
:1006F80095F8C43303EB43032344252093F8C21031
:10070800FFF7C8FF95F8C4130A20FFF7C3FF94F852
:100718009130082B00D038BD3A20BDE8384014F09D
:10072800F3B800BFA822002038B5104C054694F84D
:10073800C3130C20FFF7AEFF08211820FFF7AAFF0C
:100748008DB994F8C1130920FFF7A4FF0D210720E4
:10075800FFF7A0FF16211920FFF79CFF0A20BDE82C
:10076800384005F059BC0321EDE700BFA82200205E
:10077800F0B5836983B0054613B11A689B88138561
:100788006869264F8389C3244FF47A734FF0060EA5
:100798006E464FF6FF71013703E0013B9BB28B4277
:1007A8001DD002899207F8D504734FF47A7302E0DA
:1007B800A3B28B4213D00289D20703F1FF34F7D5D5
:1007C800027BD2B20EB132700136BEF1000F08D0F2
:1007D8000EF1FF3EFF24002FE3D03C78DBE710F05A
:1007E800C0FCAB6913B11A689B8893619DF805003A
:1007F8009DF801609DF802109DF803409DF80420C3
:100808009DF8063041EA062143EA002342EA042221
:10081800012029876A87AB8703B0F0BD601F0308F2
:10082800037A022B01D000207047F0B5036983B02A
:1008380013B11A689B881385044640F2E933C068EF
:1008480001E0002B59D00289013B12F0020F9BB244
:10085800F7D0BB23037340F2E93301E0002B4CD0FF
:100868000289013B12F0010F9BB2F7D0037BE068CD
:100878004FF0060E83896E464FF47A734FF6FF7178
:10088800FF2703E0013B9BB28B4233D002899507D7
:10089800F8D507734FF47A7302E0ABB28B4229D0D4
:1008A8000289D20703F1FF35F7D5027BD2B20EB128
:1008B80032700136BEF1010EE8D1236913B11A680E
:1008C8009B8893619DF804009DF800609DF80110D5
:1008D8009DF802509DF803209DF8053041EA062155
:1008E80043EA002342EA05220120E182228363834E
:1008F80003B0F0BD10F035FCDFE710F032FCB6E7CE
:100908002DE9F04F90F8553087B00646002B40F09F
:100918007A84A94B93F8F733002B76D07069038853
:1009280023F040031B041B0C038003889BB223F0B5
:10093800380343F03803038003889BB243F0400335
:100948000380B36996F84E4013B11A689B881385E3
:1009580040F2E93302E0002B00F0FE850289013BFA
:1009680012F0020F9BB2F6D01A23037340F2E93358
:1009780002E0002B00F0F0850289013B12F0010F24
:100988009BB2F6D0037B706940F2E93302E0002B9A
:1009980000F091860289013B12F0020F9BB2F6D05B
:1009A800047340F2E93302E0002B00F084860289E8
:1009B800013B12F0010F9BB2F6D0037BB36913B170
:1009C8001A689B889361012005F0CCFA7069038846
:1009D80023F040031B041B0C0380038823F0380317
:1009E8001B041B0C038003889BB243F04003038065
:1009F800337C022B00F04C85B6F93A305BB20133F8
:100A080000F09A8407B0BDE8F08F7069038823F07E
:100A180040031B041B0C038003889BB223F038039C
:100A280043F03803038003889BB243F040030380FC
:100A3800B36913B11A689B88138540F2E93302E061
:100A4800002B00F034860289013B12F0020F9BB2A2
:100A5800F6D06B23037340F2E93302E0002B00F079
:100A680026860289013B12F0010F9BB2F6D0037B68
:100A7800706940F2E93302E0002B00F01486028925
:100A8800013B12F0020F9BB2F6D08023037340F2B1
:100A9800E93302E0002B00F006860289013B12F0E0
:100AA800010F9BB2F6D0037BB36913B11A689B8818
:100AB80093619623414C424DDFF80CA14148DFF881
:100AC8000CC101934FF010084FF47A77B146DAF869
:100AD8000430C3F30803002B40F07983EFF311834C
:100AE800002B40F074832368816800BF226893421A
:100AF800F9D12A6807FB02FEAEEB010EBEFBF2FE3F
:100B080007FB03EE0126DAF80430C3F30803002BD1
:100B180040F02383EFF31183002B40F01E832368FA
:100B2800816800BF22689342F9D1D5F800B007FB6D
:100B38000BF2521AB2FBFBF207FB0323A3EB0E03E3
:100B4800B3F57A7FDFD3019B013B0193BFD1D9F87D
:100B580018304E4613B11A689B881385706940F2A5
:100B6800E93302E0002B00F09A850289013B12F07C
:100B7800020F9BB2F6D06823037340F2E93302E018
:100B8800002B00F08C850289013B12F0010F9BB20B
:100B9800F6D0037B706940F2E93302E0002B00F0E5
:100BA8007A850289013B12F0020F9BB2F6D003232B
:100BB800037340F2E9330EE0A8220020545D0020C0
:100BC800585D002010E000E000ED00E0505D0020DE
:100BD800002B00F060850289013B12F0010F9BB2E7
:100BE800F6D0037BB36913B11A689B889361962387
:100BF800DFF8A0A2A648DFF8A0C201934FF01008C2
:100C08004FF47A77B146DAF80430C3F30803002BBF
:100C180040F0C182EFF31183002B40F0BC822368BF
:100C2800816800BF22689342F9D12A6807FB02FE57
:100C3800AEEB010EBEFBF2FE07FB03EE0126DAF86F
:100C48000430C3F30803002B40F06982EFF31183EB
:100C5800002B40F064822368816800BF22689342B9
:100C6800F9D1D5F800B007FB0BF2521AB2FBFBF230
:100C780007FB0323A3EB0E03B3F57A7FDFD3019BB6
:100C8800013B0193BFD1D9F818304E4613B11A6809
:100C98009B881385706940F2E93302E0002B00F06D
:100CA800F6840289013B12F0020F9BB2F6D06B2347
:100CB800037340F2E93302E0002B00F0E884028974
:100CC800013B12F0010F9BB2F6D0037B706940F232
:100CD800E93302E0002B00F0D6840289013B12F0D0
:100CE800020F9BB2F6D00323037340F2E93302E00C
:100CF800002B00F0C8840289013B12F0010F9BB25F
:100D0800F6D0037BB36913B11A689B8893610F20EF
:100D180005F028F9B36913B11A689B8813857069BF
:100D280040F2E93302E0002B00F0A9840289013B7C
:100D380012F0020F9BB2F6D06A23037340F2E93334
:100D480002E0002B00F09B840289013B12F0010FA6
:100D58009BB2F6D0037B706940F2E93302E0002BC6
:100D680000F089840289013B12F0020F9BB2F6D091
:100D78001023037340F2E93302E0002B00F07B8478
:100D88000289013B12F0010F9BB2F6D0037BB369D5
:100D980013B11A689B8893610F2005F0E3F8B369D3
:100DA80013B11A689B881385706940F2E93302E031
:100DB800002B00F05C840289013B12F0020F9BB209
:100DC800F6D06C23037340F2E93302E0002B00F005
:100DD8004E840289013B12F0010F9BB2F6D0037BCF
:100DE800706940F2E93302E0002B00F03C8402898C
:100DF800013B12F0020F9BB2F6D00023037340F2BE
:100E0800E93302E0002B00F02E840289013B12F046
:100E1800010F9BB2F6D0037BB36913B11A689B88A4
:100E280093610F2005F09EF8B36996F8504013B10E
:100E38001A689B881385706940F2E93302E0002B39
:100E480000F00E840289013B12F0020F9BB2F6D02B
:100E58001923037340F2E93302E0002B00F0008409
:100E68000289013B12F0010F9BB2F6D0037B706937
:100E780040F2E93302E0002B00F0EF830289013BE6
:100E880012F0020F9BB2F6D0047340F2E93308E087
:100E980010E000E000ED00E0505D0020002B00F0C5
:100EA800DC830289013B12F0010F9BB2F6D0037B71
:100EB800B36913B11A689B8893610F2005F052F843
:100EC800B36913B11A689B881385706940F2E933D6
:100ED80002E0002B00F0BE830289013B12F0020FF2
:100EE8009BB2F6D01B23037340F2E93302E0002BD8
:100EF80000F0B0830289013B12F0010F9BB2F6D0DB
:100F0800037B706940F2E93302E0002B00F09F8315
:100F18000289013B12F0020F9BB2F6D0182303732B
:100F280040F2E93302E0002B00F091830289013B93
:100F380012F0010F9BB2F6D0037BB36913B11A68A4
:100F48009B8893610F2005F00DF8B36913B11A68F7
:100F58009B881385706940F2E93302E0002B00F0AA
:100F680073830289013B12F0020F9BB2F6D01C2357
:100F7800037340F2E93302E0002B00F06583028935
:100F8800013B12F0010F9BB2F6D0037B706940F26F
:100F9800E93302E0002B00F054830289013B12F090
:100FA800020F9BB2F6D01023037340F2E93302E03C
:100FB800002B00F046830289013B12F0010F9BB21F
:100FC800F6D0037BB36913B11A689B8893610F202D
:100FD80004F0C8FFB36913B11A689B881385706958
:100FE80040F2E93302E0002B00F028830289013B3C
:100FF80012F0020F9BB2F6D03723037340F2E933A5
:1010080002E0002B00F01A830289013B12F0010F65
:101018009BB2F6D0037B706940F2E93302E0002B03
:1010280000F009830289013B12F0020F9BB2F6D04F
:101038001023037340F2E93302E0002B00F0FB8237
:101048000289013B12F0010F9BB2F6D0037BB36912
:1010580013B11A689B8893610F2004F083FFB3696A
:1010680013B11A689B881385706940F2E93302E06E
:10107800002B00F0DD820289013B12F0020F9BB2C7
:10108800F6D03823037340F2E93302E0002B00F076
:10109800CF820289013B12F0010F9BB2F6D0037B8D
:1010A800706940F2E93302E0002B00F0BE82028949
:1010B800013B12F0020F9BB2F6D00123037340F2FA
:1010C800E93302E0002B00F0B0820289013B12F004
:1010D800010F9BB2F6D0037BB36913B11A689B88E2
:1010E80093610F2004F03EFF7269138823F04003D8
:1010F8001B041B0C1380138823F038031B041B0CE0
:10110800138013889BB243F040031380012004F03E
:1011180029FFCC4A012382F8F733FFF7FFBBEFF32F
:10112800118188F31288D0F808B00368DB0344BF44
:10113800CCF80060D0F808B02368DCF80020C9B209
:1011480081F3118829681A4407FB01F3A3EB0B0309
:10115800B3FBF1F307FB02338CE5EFF3118188F35E
:101168001288D0F808B00368DB0344BFCCF80060ED
:10117800D0F808B02368DCF80020C9B281F31188E0
:1011880029681A4407FB01F3A3EB0B03B3FBF1F344
:1011980007FB0233D2E4EFF3118388F312888168E6
:1011A8000268D20303D50122CCF8002081682668A2
:1011B800DCF800E0DBB283F311882A68B64407FB49
:1011C80002F35B1AB3FBF2F307FB0E3E36E5EFF3CF
:1011D800118388F3128881680268D20303D501223B
:1011E800CCF8002081682668DCF800E0DBB283F3E5
:1011F80011882A68B64407FB02F35B1AB3FBF2F3C3
:1012080007FB0E3E7EE41D09013D052D03F00F038B
:1012180000F207828C4A32F8150040FA03F2D4072C
:1012280040F1FF81012404FA03F3013B18402FF039
:10123800E9F9864BDFF84C825F5D074418EBC70578
:1012480000F0EF8120220023AA71EB7158F83700D3
:101258007F4A00F138439B0AD25C02F01F0352090F
:10126800022A04FA03F300F0D781032A00F0CF81A1
:10127800A24200F0C781AB88049304A90024059416
:1012880022F0EEFBAB88734AF260B3FA83F2C2F144
:101298001F02501C40D0D1B201F0FC0303F180437F
:1012A80003F5803301F00301D3F808E088004FF01C
:1012B8000F0C58F83710DFF8D0810CFA00F72EEA37
:1012C800070706F10C0E48F822E09F60D3F808C023
:1012D800614FDFF8B8E1C1F38721814041EA0C0191
:1012E8004FF00109996009FA02FCB918CEF800C05C
:1012F800082304A8049291F808808DF815308DF819
:1013080016908DF8144026F01FFA544A12F8083047
:10131800F02B00F36481AB88B3FA83F3C3F11F03A6
:10132800591C3FF4F6AA012202FA03F34C490A6851
:1013380013430B60FFF7EDBA96F9383001337FF4A9
:1013480061AB0A23474C484D484E494F0193322020
:1013580026F0E8FBDFF820914FF4FA7A4FF01008F6
:1013680004F0B4FD4FF47A7186460120D9F80430B0
:10137800C3F30803002B40F01481EFF31183002B13
:1013880040F00F81AC462368B56800BF22689342DD
:10139800F9D16246AC46D2F800B0154601FB0BF213
:1013A800A2EB0C02B2FBFBF201FB0323A3EB0E033F
:1013B800B3F57A7FDAD3BAF1010AD1D1072026F042
:1013C80035FADFF8B4904FF47A7A4FF0100804F049
:1013D8007DFD4FF47A7186460120D9F80430C3F3B5
:1013E8000803002B40F0BF80EFF31183002B40F07F
:1013F800BA80AC462368B56800BF22689342F9D129
:101408006246AC46D2F800B0154601FB0BF2A2EBDF
:101418000C02B2FBFBF201FB0323A3EB0E03B3F5B3
:101428007A7FDAD3BAF1010AD1D1019B013B01934A
:101438008DD11049104B1148114A0860DA6007B085
:10144800BDE8F08FA8220020404303084C4303085E
:10145800444203089D040008601F0308442E00202E
:1014680000040140545D0020585D002010E000E0B9
:10147800505D0020FC9F002000ED00E0EFBEADDED7
:101488000400FA05E4610020042E00201404014041
:10149800B36913B11A689B88138540F2E93301E0F8
:1014A800002B5DD00289013B12F0020F9BB2F7D0EE
:1014B800C323037340F2E93301E0002B50D00289C3
:1014C800013B12F0010F9BB2F7D0037B7069062134
:1014D800838904AA4FF47A734FF6FF75FF2703E058
:1014E800013B9BB2AB4218D00489A407F8D5077317
:1014F8004FF47A7302E0A3B2AB420ED0B0F808E022
:101508001EF0010F03F1FF34F5D0047BE4B20AB1F9
:1015180014700132013902D0E6E70FF022FEB369F8
:1015280013B11A689B8893619DF812509DF8133087
:101538009DF810409DF811109DF814009DF8152095
:1015480043EA05231BB241EA042142EA00227387D9
:101558003187B287FFF752BA0FF003FEFFF713BACD
:101568000FF0FFFDB2E7EFF3118C88F31288D6F87D
:1015780008B03368DB0344BF3860D6F808B0236886
:101588003A685FFA8CFC8CF31188D5F800C01A44CD
:1015980001FB0CF3A3EB0B03B3FBFCF301FB0233DE
:1015A8003BE7EFF3118C88F31288D6F808B033685C
:1015B800DA0344BF3860D6F808B023683A685FFA9F
:1015C8008CFC8CF31188D5F800C01A4401FB0CF38D
:1015D800A3EB0B03B3FBFCF301FB0233E6E607EBDB
:1015E8000803F0211B7E8DF80C3003A803238DF827
:1015F8000E408DF80F9002F808108DF80D302AF083
:101608006DFF88E62E4A51690B43536133E62C4A35
:10161800D1690B43D3612EE6294A91690B43936143
:1016280029E6284BF360012380E60FF09AFD53E585
:101638000FF097FD34E50FF094FD08E50FF091FDEC
:10164800E9E40FF08EFDBDE40FF08BFD9EE40FF092
:1016580088FD72E40FF085FD53E40FF082FD27E466
:101668000FF07FFD03E40FF07CFDFFF7D5BB0FF013
:1016780078FDFFF7B5BB0FF074FDFFF788BB0FF0DF
:1016880070FDFFF768BB0FF06CFDFFF73BBB0FF079
:1016980068FDFFF71BBB0FF064FDFFF7A3BA0FF05F
:1016A80060FDFFF777BA0FF05CFDFFF7FDB90FF0AB
:1016B80058FDFFF7DDB90FF054FDFFF77FB900BF04
:1016C800001002409D04000810B490E80600047B56
:1016D80040690223A3404B6013685DF8044B4FF642
:1016E800FE710B40136004F0B9BD00BFF8B58489E2
:1016F8004FF6FF764FF47A742BB311B30F7801319C
:1017080001E0B44217D00589013CAD07A4B2F8D571
:1017180007734FF47A7402E0BCB2B4420BD0058967
:10172800ED0704F1FF37F7D5057BEDB20AB1157067
:101738000132013BE0E70FF014FD003018BF012033
:10174800F8BDFF27DFE70120F8BD00BF08B540F26C
:10175800E93300E09BB10289013B12F0020F9BB212
:10176800F8D0017340F2E93300E043B10289013B4C
:1017780012F0010F9BB2F8D0007BC0B208BD0FF089
:10178800F0FCC0B208BD00BF38B50B4C0B4DD4F807
:10179800E030B4F8E4201A8540F080012846FFF7CD
:1017A800D5FF2846FF21FFF7D1FFD4F8E030B4F881
:1017B800E4209A6138BD00BFE46100200038004091
:1017C80038B53020744C13F09FF84FF47A7004F059
:1017D800C9FBD4F8E030B4F8E4201A858E216F48AC
:1017E800FFF7B4FFFF216D48FFF7B0FFD4F8E030F2
:1017F800B4F8E4209A6101210220FEF74BFF0C2186
:101808001720FEF747FF18210846FEF743FF04217B
:101818000720FEF73FFFFF213E20FEF73BFF002198
:101828000C20FEF737FF5C210D20FEF733FF7621F1
:101838000E20FEF72FFF27210F20FEF72BFF232175
:101848001320FEF727FF7A211420FEF723FF162125
:101858001920FEF71FFF6C211A20FEF71BFF03213A
:101868001B20FEF717FF40211C20FEF713FF9121D4
:101878001D20FEF70FFF56212120FEF70BFF102138
:101888002220FEF707FFA9212320FEF703FF0A21E4
:101898002420FEF7FFFE00212520FEF7FBFE112184
:1018A8002620FEF7F7FE59212920FEF7F3FE8821AE
:1018B8002C20FEF7EFFE31212D20FEF7EBFE0B2149
:1018C8002E20FEF7E7FE07210320FEF7E3FE0021A6
:1018D8000920FEF7DFFE324B93F89140082C3DD0EB
:1018E8001E210620FEF7D6FE01210820FEF7D2FEB3
:1018F8000A210B20FEF7CEFE7B211020FEF7CAFE40
:1019080061211120FEF7C6FE13211220FEF7C2FE48
:1019180051211520FEF7BEFE224C0025362012F07C
:10192800F3FFE9B20A20FEF7B5FE332012F0ECFF10
:101938004FF4617004F016FB2320FFF725FF207099
:101948002420FFF721FF60702520FFF71DFF0135D8
:10195800FF2DA07004F10304E0D138BD1921062041
:10196800FEF798FE05212046FEF794FE21460B203F
:10197800FEF790FEAA211020FEF78CFE39211120D7
:10198800FEF788FE11211220FEF784FE4221152061
:10199800FEF780FEC0E700BFE46100200038004089
:1019A800A8220020682300202DE9F041134F0446A7
:1019B8003B200D4612F0A8FFD7F8E030B7F8E42036
:1019C8001A857F210E48FFF7C1FE80465DB1013DB3
:1019D8000B4E54FA85F5013C14F8011F3046FFF709
:1019E800B5FEAC42F8D1D7F8E030B7F8E4209A61F8
:1019F800352012F089FF4046BDE8F081E4610020FF
:101A0800003800402DE9F041114FD7F8E030B7F821
:101A1800E4201A8504460D460E48FF21FFF796FE7E
:101A2800804665B1013D0B4E54FA85F5013CFF2116
:101A38003046FFF78BFE04F8010FAC42F7D1D7F818
:101A4800E030B7F8E4209A614046BDE8F08100BF75
:101A5800E4610020003800402DE9F843431E0446A5
:101A68000E46042B20D8DFE803F03E0381B52200A0
:101A7800B54DB64A95F9FC33D5F8F8137D2BC4BF9C
:101A8800822385F8FC3313685B1A322B00F24181FC
:101A9800D5F894000FF02BFA30B1FB20FFF774FE55
:101AA80010F07F0740F0F3802046BDE8F883A64D8C
:101AB80095F8C033002B00F098802824D5F89800BA
:101AC8000FF006FA322004F0A7FAD5F898000FF0C4
:101AD800FAF9322004F0A0FA631E13F0FF04EDD1E6
:101AE8000620BDE8F8830120FEF72CFD964D18B9B5
:101AF80095F8C033002BF3D0D5F898000FF0E8F92B
:101B080014211920FEF7C6FD904A82231268C5F8F1
:101B1800F82319460C2085F8FC33FEF7BBFD0C2191
:101B28000720FEF7B7FD08211820FEF7B3FD362081
:101B380012F0EAFE95F8C0102320FEF7ABFD95F8E9
:101B4800C1102420FEF7A6FD95F8C2102520FEF747
:101B5800A1FD00210A20FEF79DFD3A2012F0D4FED7
:101B6800342012F0D1FE0220BDE8F883764DD5F876
:101B780094000FF0BCF9002896D0FB20FFF704FE74
:101B880010F07F0790D0394637443046FFF73AFFC8
:101B980017F9013C002B87DAB378012B84D17179CE
:101BA800002981D1F278337985F8C1236FF00400D8
:101BB80085F8C233801B721D06F10A0483180B4492
:101BC80012F8011F2B44944283F8C41300F0AF802D
:101BD8007179F3E75C4D95F8FD33782B0AD93620F7
:101BE80012F092FE0520BDE8F88303F0C1FA062042
:101BF800BDE8F883D5F894000FF079F900283FF490
:101C080053AFFB20FFF7C0FD10F07F073FF44CAF48
:101C1800394637443046FFF7F5FE17F9013C002BEB
:101C2800BFF642AFB378012B7FF43EAFF27895F858
:101C3800C1339A427FF438AF327995F8C2339A4269
:101C48007FF432AF737995F8FD239A4219467FF4F1
:101C58002BAF06F10508002204E0052A8EF8C4C35C
:101C68006BD0737918F801CF17F8039C05EB020EB7
:101C7800E145D0B29E4402F1010202D0BCF1000F4E
:101C8800EBD12C29E9D9034485F8BD30A7E73946BB
:101C980037443046FFF7B6FE17F8013C1A067FF5C1
:101CA80003AFB678012E7FF4FFAE03F07F03312B2C
:101CB8003FF6FAAE95F8FC3385F8C333362012F0B8
:101CC80023FE95F8C0102320FEF7E4FC95F8C11018
:101CD8002420FEF7DFFC95F8C2102520FEF7DAFC79
:101CE80000210A20FEF7D6FC3A2012F00DFE14203F
:101CF80004F038F9342012F007FE3046002205239C
:101D080085F8BD2085F8FD33FEF70EFD0320BDE8FC
:101D1800F88395F8FC331268C5F8F8230533DBB26D
:101D280019460C2085F8FC33FEF7B4FCB0E6337B8B
:101D380085F8F6330420BDE8F883053185F8FD13EE
:101D48002046BDE8F88300BFA8220020545D00208B
:101D58002DE9F0479E4C94F89C3082B006460A2B39
:101D68005DD8DFE803F057B4B4B4B4B4BF061A6161
:101D78008B0004F0ABF80025C4F80004082241F2F7
:101D8800B443284684F8045484F89C20C4F80834E2
:101D9800FEF7D8FB002840F00A81D4F894000FF031
:101DA800A6F820B194F80434002B00F0218194F8AF
:101DB8000D34002B40F0AA8004F088F8D4F80034E1
:101DC800D4F8A41042F22832C01A02FB01F282426F
:101DD80025DA94F86934D4F898005A1CDB0784F89B
:101DE800692440F1E1800FF06EF87A4B1B78032BE1
:101DF80002D1794B00221A800120FEF74DFC3420D5
:101E080012F082FD00250723284684F89C3002B092
:101E1800BDE8F087714B1B680A2B00F2D2800025C1
:101E2800284602B0BDE8F087D4F8083403F28F15CD
:101E380004F04CF8D4F80034C01A8542EFDA3620A2
:101E480012F062FD1EF046FD3A2012F05DFD1E20E4
:101E580004F088F8362012F057FD94F838146048DA
:101E68000131C9B2FFF7A0FD94F8A830002B40F06B
:101E780088810A2384F89C300225D1E704F026F8EB
:101E8800D4F80034D4F80824C01A02F674628242E6
:101E9800C5DA04F01BF8534EC4F8000441F2B44309
:101EA8007078C4F80834002584F80454FEF7F4FB6D
:101EB800342012F029FDD4F8A030642B00F276818A
:101EC80001330822C4F8A03084F89C20A8E7014612
:101ED8001846FFF7C1FD002584F89C00284602B08B
:101EE800BDE8F0872F23002084F8BD30FEF71CFCE6
:101EF8000723012084F89C30FEF7CEFB342012F033
:101F080003FD0125284602B0BDE8F08703F0DEFF97
:101F1800D4F80034D4F80824C01A8242BFF64CAF73
:101F28000E2194F8C12394F8C23384F8381484F845
:101F3800392484F83A3494F84C14F37884F83B3410
:101F4800092284F89C20002900F0D88194F88A207E
:101F580062F07F02D2B284F83C24727D81F00101E4
:101F680084F84C14110740F180810021882284F8FC
:101F78004D1484F83D241C481C4D00F1090600212D
:101F880001E010F8013F83EA112205EB4202864284
:101F9800138C83EA01231BB299B2F2D1090A84F89F
:101FA800451484F8463407E70EF092FF1DE7322205
:101FB800C4F80054C4F8A05084F89C50C4F8A42075
:101FC8002EE7FFF7FDFB012384F89C30002527E767
:101FD800A82200206C320020286A0020545D0020CE
:101FE800E026002000000020E3260020601F0308F0
:101FF800FB20FFF7C9FBFB20FFF7C6FB00F07F00C3
:10200800202884F80C0440F2DC802021304684F833
:102018000C1488461925FFF7F5FC4FF01C0EF11C2F
:10202800681EC0B20430CD4D3044002211F8013B87
:1020380083EA122305EB430381421B8C83EA0223C4
:102048009AB2F3D116F80E30B3EB122F7FF4AFAE7D
:10205800B044D3B218F8032C9A427FF4A8AE337870
:102068001D2B7FF4A4AE727894F8C1339A427FF4A2
:102078009EAEB27894F8C2339A427FF498AE94F840
:10208800F62322B1B37913B19A427FF490AE0023BC
:102098000122D4F89800C4F8A030C4F80834C4F871
:1020A800A4200EF015FFAE4A1378A3B173793079E6
:1020B80094F8BD109B00DBB28842537006D301F13F
:1020C8003F058542C0F23C81013353700121002352
:1020D80084F80D14137094F80C343344354613F80F
:1020E800020C2EF049FC727D9E4955F8160F94F8A3
:1020F8002DE402F00302C2EBC203C850C818E1186D
:102108000EF10103AD88858003F00303012500204B
:102118009A4281F8165484F82C041FD01D4603E017
:102128000CF00305AA4219D0C5EBC501214405F1FD
:10213800010C91F816040028F2D194F82C24D4F854
:10214800301465F30512D2B242F04002013155064F
:1021580084F82C24C4F8301400F114810022C4F847
:102168003024C3EBC3022244591C92F81624002AD7
:1021780000F02181734500F01E811F4601F0030322
:10218800EFE7794AD4F86C341268D31A0020182B78
:102198008DF8070027D902AE012306F8013DC4F8DF
:1021A8006C24314600221AF053FD62E632200121E8
:1021B800072284F80D54C4F8A400317084F89C20D8
:1021C8002EE600283FF4F3ADC21F01468046D5B283
:1021D8003046FFF717FCA8F1040EF11C2A46002D23
:1021E8003FF430AF1CE794F83484604F08F10108DD
:1021F80008F003084FEAC80982460DF10706A9EB63
:102208000805254495F81634002BCAD00028C8D1F3
:1022180095F8102494F870349A4202D813E00028F4
:10222800EDD1EA183146002392F811043A461AF023
:10223800A3FF94F8703495F810240133DBB29A4266
:1022480084F87034EBD89A42D9D1A9EB0809A14493
:1022580008F1010384F8348403F0030889F816A40C
:1022680084F870A44FEAC809C9E712F040014DD1BB
:10227800C2F30112013294F84D0402F003029042B5
:102288003FF479AE94F82C6494F8682494F800E04C
:10229800374D06F0F00660F301060B4684F83D64FE
:1022A8007245DFB204EB020602F1010103F10103FA
:1022B80043D0327905F8012B052B01F03F02EFD10D
:1022C80084F868241F462B4D84F83E742E46421C21
:1022D80000EB4001504256F8127D94F83B34B68822
:1022E8004FEA410100F0030002F0030258BF4242E6
:1022F80068186F5084F84D2486803CE61E481F4AB3
:10230800007B32F81020C2F3461224E61C4D94F8E4
:102318002C14C2F3011202EB420605F1120000EB85
:10232800460001F0F00162F3010186880268AE8080
:1023380084F83D14C4F83E241DE684F86824C2E7F6
:1023480001F17F05A84202DC02335370BEE6BF31BB
:102358008842DCBF03335370B8E600BF601F030830
:1023680000000020B8260020545D002089010008E4
:10237800E7260020F8260020F45C0020145D0020E9
:10238800E626002004290ED9032384F8160484F8CD
:102398001D0484F8240484F82B04C4F8300484F859
:1023A800343484F82D3403F091FD0123C4F800047B
:1023B80084F80434FBE494F82C3484F82D7467F31F
:1023C800051384F82C34EEE72DE9F041054603F0B7
:1023D8007DFDBB4C064694F8A900092858D8DFE8CB
:1023E80000F04B92929292929B5B0570D4F8940005
:1023F8000EF07DFD002840F0A2800025D4F8B4102E
:10240800D4F8AC2042F2283303FB01F3B61A9E42FB
:102418002FDD012900F0C08094F89234D4F8980098
:102428005A1CDB0784F8922440F1B3800EF04BFD70
:10243800A44B1B78032B13D1A34FA44E3A78A4487E
:1024480036F812E00368511C01F00F01A3EB0E03EC
:10245800397000279F4926F812701A0903600A800C
:102468000D20FEF719F9342012F04EFA072384F8EC
:10247800A9302846BDE8F081974BD4F8B8201B68EE
:102488009B1A0A2B04D9FFF79BF9012384F8A9307A
:1024980000252846BDE8F08108230020C4F8AC6078
:1024A80084F8A930FEF74EF800289FD00025322383
:1024B800C4F8AC50C4F8B05084F8A950C4F8B4308B
:1024C800D7E703F003FDD4F8743440F26352C01A1E
:1024D8009042DDD9362012F017FA1EF0FBF93A20A7
:1024E80012F012FA362012F00FFA94F87C147B4896
:1024F8000131C9B2FFF758FA0823C4F8AC6084F870
:10250800A9300225B5E72946FFF7A6FA002584F881
:10251800A9002846BDE8F0812F23002084F8BD30AB
:10252800FEF702F90723012084F8A9300125FEF7F8
:10253800B3F8342012F0E8F92846BDE8F081FB2012
:10254800FFF722F900F07F0013287FF656AF142119
:102558002846FFF757FA95F91330002BBFF64DAF11
:102568002F7800234FF00108112FC4F8B030C4F8B9
:10257800B48022D0D4F8AC2042F22833B61A9E4256
:1025880086DD002501220120C4F8B020FEF784F87A
:1025980069E70EF09DFC4BE7D4F8B030642B03F1EB
:1025A8000102F0D9474B1B783221032BC4F8B41031
:1025B800E9D1484B00211980E5E76A7894F8C133DE
:1025C8009A42D7D1AA7894F8C2339A42D2D1D4F891
:1025D80098000EF07DFC4046FEF75EF8EB7803F0BD
:1025E8000303022B09D0342012F08EF9072384F854
:1025F800A930C4F8AC60022500E703F067FCC4F812
:102608007404A87C2EF0B8F9354A364B517C107BFF
:1026180094F8C1E333F8102033F8113094F890049B
:10262800297994F8C25384F87C74C3F30B13884255
:1026380084F880340EBF94F8453094F8913484F8C7
:102648004530C2F30B1208BF84F891344B1C03F0D9
:102658001F0384F87F24B4F88A2084F87E5484F811
:10266800812484F8903484F8781484F87DE494F80C
:10267800452094F84450194F002305E09CF8480081
:102688008EF808000A2B16D002F10108954204EBD7
:10269800020C07EB030ED8B208F03F0203F1010366
:1026A800ECD184F84550092384F8820484F8831413
:1026B80084F8A9309DE784F845201846F3E700BF61
:1026C800A82200206C3200206D32002074320020D5
:1026D80070320020286A0020545D00202427002042
:1026E800F45C0020145D0020028822F040021204ED
:1026F800120C0280028822F038031B041B0C59B10B
:1027080041F48071002991FAA1F2B2FA82F108BF6E
:102718004FF0FF310139C9000B439BB20380038896
:102728009BB243F040030380704700BFF8B5444CA8
:1027380044480421FFF7D8FF20680EF0C4FB424B41
:102748001B78012B6DD058D3022B4ED13F4D082357
:102758002B704FF4C3733E4E3E4F3380022100204E
:102768000FF0EEFC04213748FFF7BEFF20680EF09B
:10277800AAFB2D7833480021FEF7E8FF29463148A7
:10278800FEF7E4FF344B2F481D780221FEF7DEFFE9
:1027980029462C48FEF7DAFF304B2A481D780321DA
:1027A800FEF7D4FF29462748FEF7D0FF2C4B2548D3
:1027B8001D7804210D43FEF7C9FF29462148FEF77D
:1027C800C5FF20680EF084FB02211E48FFF78CFF2E
:1027D8003288244800212FF050FBBB7863B1224B8C
:1027E8001B7823B30023BB70F8BD184D2B785B060C
:1027F800AFD54FF4F073AEE7F8BDA0211148134DE3
:10280800FEF7A4FF00210F48FEF7A0FF00F0060323
:10281800022B03D000F0050001280DD008232B70EF
:1028280097E70A4D48232B704FF4F07393E70FF0A6
:1028380011FC0023BB70F8BD48232B70D9E700BFFB
:1028480098540020003001409C540020D0060020FD
:10285800E804002000000020A3540020A454002015
:10286800B04D00207849002069490020F0B55B4B45
:102878005B4A97B01968914200AF00F0A3805949AC
:10288800594A00234FF47000C1F888003B607B6010
:10289800136843F48033136003E03B68B3F5A04F3B
:1028A80009D0136803F400337B603B6801333B6055
:1028B8007B68002BF1D04C4B1B6813F4003318BF16
:1028C80001237B607B68012B52D0464C464B474A1C
:1028D800E260474A596A11605A6A42F080725A6245
:1028E8005A6942F4FC025A610025032207F10801E3
:1028F800012341F6FF764FF09040FD60BE603A73C9
:10290800BB7321F0ADF84FF6FF7307F108013948A2
:10291800BB6021F0A5F807F108013748374E21F0D0
:102928009FF807F10801364821F09AF807F10801E5
:10293800344821F095F807F10801334821F090F860
:1029480007F1080020F09CFEBB683049304AA1FB23
:10295800031330499B0CF0204FF0070E5C370B60D7
:10296800566084F823009560C2F800E0BD46F0BDCB
:10297800294A1D4B122111605A685A605A685A60D8
:102988005A6842F480625A605A6822F47C125A608B
:102998005A6842F4E8125A601A6842F080721A6063
:1029A8001A689201FCD559680F4A21F00301596051
:1029B800596841F002015960536803F00C03082B71
:1029C800FAD182E700221A6062B6144B1B6883F3BF
:1029D8000888134B1B689847FEE700BFFC9F002040
:1029E800EFBEADDE00ED00E0001002400005FA0584
:1029F8007068002000040048000800483F190100E2
:102A0800000C0048001000480014004883DE1B43F7
:102A180010E000E0585D00200020024000D8FF1FB1
:102A280004D8FF1F70B50F4C0F4DC0EBC00004EB6E
:102A38008004686926693043686182B09209667BC0
:102A4800A1600025012101A863618DF804608DF85B
:102A580005208DF806508DF8071029F03FFD02B0CB
:102A680070BD00BF4C0B002000100240074BC0EBAC
:102A7800C00030B403EB8000054C056963692B4343
:102A880063610176427630BC704700BF4C0B002072
:102A9800001002402DE9F04F5E4C54F8204083B0FE
:102AA800002C71D0A66D984691465B4B72682265E2
:102AB800A160236004F15E014FF4807304F5AF72E6
:102AC8006161A261E36023610746307E24F06AFAFF
:102AD800F068A8B1514B00215A68904203F11C03D9
:102AE80000F0928001310C29F6D100207A1CD2B274
:102AF8000C21FFF7BBFF236DF26862632433E364A4
:102B0800B068D8B1454B00215A68904203F11C03C4
:102B180078D001310C29F7D100257A1CD2B20B21CB
:102B28002846FFF7A3FF2346F27E3D492846FFF7D4
:102B380079FF236DB268A2632833A36494F85D001B
:102B480003F0FCFD054694F85C0003F0F7FD18F06F
:102B5800080F824696F819B01AD0CDB118F0110FA7
:102B68004FF00B0307F1010714BF4E213E21EF710F
:102B78005A46AB7128460DF019FE18F0010F45D0E2
:102B8800636B5BB3A36B4BB3204603B0BDE8F08F18
:102B980018F0010F0CBF4FF02E084FF04E0819F037
:102BA800020F09D045B10B227B1CAA71EB71284694
:102BB8005A4641460DF0FAFD19F0010FE0D0BAF17E
:102BC800000FDDD001370C238AF807705A464146BA
:102BD8008AF8063050460DF0E9FDD1E7337FB27E22
:102BE8008DF804209B090021012201A88DF80530E9
:102BF8008DF806108DF8072029F070FC204603B0E8
:102C0800BDE8F08FCDB288E7C8B26FE728460EF06E
:102C18005AF9B5E70C410020802103084C0B00202D
:102C2800D116000800B97047F0B595B0054624F0F4
:102C380061FD6C4EC368026832600446002B00F0E8
:102C4800C480284603F07AFD674BC3F8940418B192
:102C5800292200238271C371227A644D2E210DF03E
:102C6800A5FD306802F0C4FF24F09CF93068604A82
:102C7800038823F001031B041B0C038014A91E23E3
:102C88002B8001270F230025138021F84C7D2D234D
:102C98000293ADF80C50ADF80650ADF80E5024F084
:102CA800D7FCE379ADF8145060229907ADF81650B7
:102CB8000695ADF81C50ADF81E50ADF82050ADF893
:102CC8002250049200F1838013F0010F0CBF002200
:102CD80002224FF48073ADF81470ADF81C20ADF8E3
:102CE8002030002304AA61793068069302F0CEFCF4
:102CF800617930683F4F24F08BFC33685A6C42F49A
:102D080000425A641A8892B242F080021A80E2792C
:102D18006079196A92074CBF04220122824021EA95
:102D280002011962196A0A431A621A8892B242F0B9
:102D380001021A80207C00222921FFF797FE2E49E4
:102D4800207C00236022FFF76DFEE068386029F0E0
:102D5800C1FA386803684FF6FE721340036029F021
:102D6800B9FA09A829F088FA3368627923493868DA
:102D78000A9134331344099380221023002509A9AA
:102D880040F22A3E0E920B934FF400724FF4005318
:102D98000D951095139511950F921293ADF830E09B
:102DA80029F078FA627933680C2A98BF1449D868F0
:102DB80098BF31F812503A6812490543DD6013682C
:102DC800012043F002031360087015B0F0BD13F042
:102DD800010F0CBF2A4608220423ADF81E20ADF8C7
:102DE80016307EE7EC4D0020A8220020E24D00209E
:102DF800E04D0020E84D00201D0500084C3900205A
:102E080064430308E44D00200348D0F83C3113B173
:102E180000F59A70184770474C0B00200348D0F80B
:102E2800203113B100F58C70184770474C0B002007
:102E38000348D0F804310BB1FC301847704700BF85
:102E48004C0B00200348D0F8E8300BB1E0301847AD
:102E5800704700BF4C0B00200348D0F8CC300BB1B2
:102E6800C4301847704700BF4C0B00200348D0F807
:102E7800B0300BB1A8301847704700BF4C0B00208A
:102E88000348D0F894300BB18C301847704700BF16
:102E98004C0B00200248836F0BB170301847704705
:102EA8004C0B00200248C36D0BB1543018477047D3
:102EB8004C0B00200248036C0BB1383018477047A0
:102EC8004C0B00200248436A0BB11C30184770476E
:102ED8004C0B00200248836803B11847704700BFB5
:102EE8004C0B0020F8B505015A4C5B4B625961192F
:102EF8009A4204EB050704BF01230B730646387A90
:102F080024F050F83B7A03F01F015B090122022BE1
:102F180002FA01F278D0032B71D0012B67D0631924
:102F28000136187903F00AFCF6B2074610B11223ED
:102F3800C67183716319587903F000FC10B113232B
:102F4800C67183716319987903F0F8FB10B11423E3
:102F5800C671837166190E21F27938460DF026FC88
:102F6800707903F0EBFBF2790E210DF01FFCB079BC
:102F780003F0E4FBF2790E210DF018FC6359374A8F
:102F8800934251D0344A934259D0354A934240D063
:102F98002C44227B002A2FD1012002249A8822F473
:102FA80080521204120C9A80998889B241F4805197
:102FB80099801A8802F4415242F44572024322432E
:102FC8001A809A8822F470621204120C42F4E062A9
:102FD8009A809A8B22F400621204120C07219A83B9
:102FE80019821A8892B242F040021A80F8BD1D4B2D
:102FF800996A0A439A6292E700200446CEE7194B81
:1030080019690A431A618AE7164BD9680A43DA60D4
:1030180085E702F5EA32116941F40041116111694D
:1030280021F400411161B3E702F56042D16841F42F
:103038008051D160D16821F48051D160A8E702F5B0
:10304800EC32116941F480411161116921F4804128
:1030580011619DE7304100200038004000300140F8
:10306800003C0040001002401749184B184A194804
:1030780010B4D1F8884044F47004C1F888401C6842
:1030880044F001041C605C6822405A601A6822F00F
:10309800847222F480321A601A6822F480221A603C
:1030A8005A6822F4FE025A60DA6A22F00F02DA62E3
:1030B8001A6B002410404FF0006218639C608A600D
:1030C8005DF8044B704700BF00ED00E000100240BF
:1030D8000CC07FF8CCFC00FF2DE9F04FB0F9085088
:1030E8000D81EDB2442D93B00C46174600F0928244
:1030F80006462FD9812D00F0DD8100F28280542D03
:1031080000F0B08040F2C3816E2D00F05182802D16
:1031180040F00481AF4B1D780B3D15F0FF0512D030
:10312800AD4F00220A2621683B88481C20600E709B
:103138002168FF2B02F10102A8BFFF23481CAA4205
:1031480020600B70EFDB01252B462846638113B006
:10315800BDE8F08F052D00F04B821ED8022D79D0E6
:1031680040F28281032D00F01A82042D40F0D680AF
:103178002A469A4920460EF0AFFB002120460EF061
:10318800D9FB22680221531C0125236028462B46BF
:103198001170638113B0BDE8F08F242D58D040F230
:1031A800FB80282D00F0C081382D40F0B7800B68D7
:1031B8008B4901255A1C22601D7023680522581965
:1031C80020601A7023680A22581920601A70236830
:1031D8000022581920601A7023680A78581920604C
:1031E8001A7023684A78581920601A7022688978FA
:1031F800531923602B4611702846638113B0BDE82C
:10320800F08FA02D12D040F20581B82D00F0C581B5
:10321800FE2D40F08380734D05F1080635F8021B3A
:1032280020460EF087FBAE42F8D18CE76E4B08467D
:1032380019680EF068FB6D4B204619680EF063FBA9
:103248006B4B1968204601250EF05DFB2B467CE789
:10325800684BF6E704226849204601250EF03CFB3E
:103268002B46C9E70B68654A654F581C1121206039
:10327800197023681278591C21601A70236897F80E
:103288005520591C21601A70236897F85420591C3E
:1032980021601A70B7F8501020460EF04BFB2368D7
:1032A8000022591C21601A7023682822591C2160A9
:1032B8001A70B7F8521020460EF03CFBBD1E07F1FD
:1032C8004E0635F8021F20460EF034FBAE42F8D108
:1032D80022684C4B0D21501C20605D18117022682B
:1032E80013F8011F501C9D4220601170F7D123680C
:1032F8000222591C21601A70B7F8561020460EF0A9
:1033080019FBB7F8581020460EF014FB0125B7F842
:103318005A1020460EF00EFB2B466DE72146284634
:103328000EF042FF804600287FF40DAF742D00F0A8
:10333800B480772D0CD1336872689A421BBF5A1C2F
:10334800326001461978304A20462BF0DFFDFAE654
:10335800F52D00F06781392D376801F0478200F2BA
:10336800EB81212D01F05282292D40F091827B1CA6
:1033780033603B780A2B01F07B82502B40F05B874F
:1033880030460EF099FA214F388030460EF094FA04
:10339800012578802B462FE7202DBFD10B681C4DC7
:1033A800591C6A7821601A7023682A78591C216090
:1033B8001A702368AA78591C21601A702989204636
:1033C8000EF0B8FA23686A79591C21601A702268CD
:1033D800A979D8E6746F00200C3E00201255002011
:1033E8000D48002098570020ACF7FF1FB0F7FF1FCB
:1033F800B4F7FF1FD44D0020B04A0308A0540020A2
:10340800F46800205169002065E70208FC3D0020AF
:1034180024440020822D81D10B68B04AB04D117828
:10342800B04A581C20601970118920460EF082FAA3
:10343800AD4B22681B88FF2B02F10101A8BFFF23B7
:1034480021601370A96881F3100189B220460EF03B
:1034580071FA296801F30F0189B220460EF06AFA61
:10346800A24B226819788EE6012D7FF457AF0B68BE
:103478000022591C21601A7023685A1C22601D7092
:1034880022682521531C23602B461170B4E6522D67
:103498007FF444AF2268002175E6336872689A4267
:1034A8001BBF5A1C326001461978914A20462BF0FE
:1034B8002DFD48E68F4B1E780A3E16F0FF063FF4B6
:1034C80042AE8D4B8D4F1E4403F101080A2314E0D0
:1034D800502B00F00081002529462268501C2060EE
:1034E800204613700EF026FA294620460EF022FADE
:1034F80046453FF428AE18F8013B0A2BE8D1804A2C
:103508009568116805EB85054FF6FF726D009542C9
:10351800A8BF15469142A8BF114625EAE57521EADC
:10352800E171ADB289B2D8E70B68DFF80482754E55
:10353800591C022221601A70236806275A1C22602F
:103548001F7023680A22591C21601A7023680125FC
:103558005A1922601D70B8F8001020460EF0EAF9DA
:10356800B8F8021020460EF0E5F923685A192260CF
:103578001F7023685022591921601A70236800228D
:10358800591921601A70318820460EF0D3F97188D4
:1035980020460EF0CFF92B462EE65B4B51E60B6822
:1035A8005A1C0A601D700B685A1C0A601D7071E76E
:1035B8004D4B0A681B884A4DFF2BA8BFFF23511C9F
:1035C80021601370A96881F3100189B220460EF0BA
:1035D800B1F94E4B204619880EF0ACF9296801F371
:1035E8000F0189B2204601250EF0A4F92B4603E607
:1035F8000B22474920460EF06FF90822454920461C
:103608000EF06AF901250722434920460EF064F9B5
:103618002B46F1E5002A3FF496AD404B1360012597
:103628002B46E9E5336872689A4241F00F813C4BBA
:10363800FF221A704FF000093A4D10F085F84946FC
:103648002022394885F800902EF017FC8DF8089054
:103658009DF80830072B01F26D81DFF8D880324ED3
:103668004A469DF8083003EB430308EBC3035B7C31
:10367800DBB19DF8083003EB430308EBC3035B6938
:103688009BB19DF8083003EB430308EBC30358696B
:1036980046F8220023F000FD2B7856F823000DF0A1
:1036A80017FC2A780132D2B22A709DF8083001330B
:1036B800DBB28DF808309DF80830072BD1D9236884
:1036C800591C21601A70002F3FF43DAD174B3B6029
:1036D80001252B4690E5BD68396813E7BA570020E5
:1036E8006442002024440020A4570020606A00207F
:1036F800A5E70208746F0020A8210308003E0020F7
:10370800C83D0020FC3D0020A8590020286A002060
:10371800B84A0308C44A0308D04A03089921010893
:10372800B02700205356002014560020112D0208FF
:103738001C51002050640020552D79D0572D40F0A1
:10374800A7807B1C3846336010F8375B0DF1070201
:103758000133336013F8011C02F8011F8342F7D1CB
:10376800DFF824A19AF80070002FFDD1DFF81CB112
:103778004248424E4FF0010804218AF80080FEF7C3
:10378800B3FFDBF800000DF09EFB3D4B3946304699
:1037980083F80080FDF7DAFF39463046FDF7D6FF9B
:1037A80009213046FDF7D2FF29463046FDF7CEFF06
:1037B8000DF1080845460DF13E09A5EB0807FFB2D3
:1037C8000A213046FDF7C2FF39463046FDF7BEFFF5
:1037D80015F8017B0B213046FDF7B8FF3946304616
:1037E800FDF7B4FF002002F0E3FDA945E5D1234829
:1037F80008210546FDF7AAFFA0212846FDF7A6FFE8
:10380800A0212846FDF7A2FF00212846FDF79EFFCC
:1038180010F02006F4D1DBF800000DF059FB01256B
:1038280002211648FEF760FF8AF800602B46E3E4A1
:103838007B1C336097F80080B8F1FF0F01F04280DD
:10384800B8F1FE0F01F02B8030460EF035F896E8FF
:103858000C009B1A002B07DD531C336013781BB92F
:10386800B8F10C0F41F25B80B8F1270F00F2938298
:10387800044B012523F818002B46BDE40030014015
:103888006A490020F4680020694900209854002003
:1038980072680B3DD31BEF2D00F27D8201A151F818
:1038A80025F000BFBF4700089F3D00089F3D000866
:1038B8009F3D00089F3D00089F3D00089F3D000870
:1038C8009F3D00089F3D00089F3D00089F3D000860
:1038D8009F3D00089F3D00089F3D00089F3D000850
:1038E8009F3D00089F3D00089F3D00089F3D000840
:1038F8009F3D00089F3D00089F3D00089F3D000830
:103908009F3D0008D14300089F3D0008A5470008D7
:103918009F3D0008834700089F3D00089F3D000821
:103928009F3D0008CD4100089F3D000873410008F5
:103938009F3D0008514700089F3D000815470008B3
:103948009F3D00083F4700089F3D00087D43000851
:103958009F3D0008954200089F3D00089F3D0008D4
:103968009F3D00089F3D00084F3100089F3D00081B
:10397800694200089F3D00089F3D00084F4200082B
:103988009F3D0008F54100089F3D00089F3D000845
:103998009F3D00089F3D00089F3D00089F3D00088F
:1039A8009F3D00089F3D0008334500089F3D0008E3
:1039B800E54400089F3D00089F3D0008A544000815
:1039C8009F3D00089F3D00089F3D00089F3D00085F
:1039D8009F3D00089F3D00089F3D000841440008A6
:1039E8009F3D0008D94500089F3D00086F45000825
:1039F8009F3D0008854600089F3D00084B41000890
:103A080003410008E74000089F3D00089F3D00086B
:103A18009F3D00089F3D00089F3D00089F3D00080E
:103A28009F3D00089F3D00089F3D00089F3D0008FE
:103A38009F3D00089F3D00089F3D00089F3D0008EE
:103A48009F3D00089F3D00089F3D00089F3D0008DE
:103A58009F3D00089F3D00089F3D00089F3D0008CE
:103A68009F3D00089F3D00089F3D00089F3D0008BE
:103A78009F3D00089F3D00089F3D00089F3D0008AE
:103A88009F3D00089F3D00089F3D00089F3D00089E
:103A98009F3D00089F3D00089F3D00089F3D00088E
:103AA8009F3D00089F3D00089F3D00089F3D00087E
:103AB8009F3D00089F3D00089F3D00089F3D00086E
:103AC8009F3D00089F3D00089F3D00089F3D00085E
:103AD8009F3D00089F3D00089F3D00089F3D00084E
:103AE8009F3D00089F3D00089F3D00089F3D00083E
:103AF8009F3D00089F3D00089F3D00089F3D00082E
:103B08009F3D00089F3D00089F3D00089F3D00081D
:103B18009F3D00089F3D00089F3D00089F3D00080D
:103B28009F3D00089F3D00089F3D00089F3D0008FD
:103B38009F3D00089F3D00089F3D00089F3D0008ED
:103B48009F3D00089F3D00089F3D00089F3D0008DD
:103B58009F3D0008214100089F3D0008D140000812
:103B6800A74000089F3D00089F3D00089F3D0008B2
:103B78009F3D00089F3D00089F3D00089F3D0008AD
:103B88009F3D00089F3D00089F3D00089F3D00089D
:103B98009F3D00089F3D00084D4000089F3D0008DC
:103BA800154000089F3D0008793F00081B3F0008AA
:103BB800FF3E00089F3D0008E53E00089F3D0008C5
:103BC800BD3E00089F3D0008633E00089F3D000879
:103BD800353E00089F3D00089F3D0008133E000841
:103BE800E53D0008D13D0008A93D0008813D0008D9
:103BF8005F3D00089F3D00089F3D00089F3D00086D
:103C08009F3D00089F3D00089F3D00089F3D00081C
:103C18009F3D00089F3D00089F3D00089F3D00080C
:103C28009F3D00089F3D00089F3D00089F3D0008FC
:103C38009F3D0008453D00089F3D00089F3D000846
:103C4800ED3C00089F3D00089F3D00089F3D00088F
:103C5800873C00089F3D00089F3D00089F3D0008E5
:103C68006D3C0008B14B1B78DB0700F194800125FF
:103C780001F07EFA01F024FB2B46FFF7BDBA30466F
:103C88000DF01AFE3368ADF808001A46591C316069
:103C980012F8021B32608DF80A105A788DF80B2042
:103CA800DA1C32609A788DF80C201A1D3260DA78A6
:103CB8008DF80D205A1D32601B798DF80E3002A840
:103CC8000023ADF810300DF053FD994A994B126856
:103CD800801A4FF0010561F10001C3E904012B4688
:103CE800FFF78ABA7B1C33603B780F2B53D8BA1C7A
:103CF8003260C3EBC303904A7978D154F91C316020
:103D08001344BA785A703A1D3260FA789A707A1D5C
:103D180032603A79DA70BA1D32607A791A71FA1D0E
:103D28003260BA795A7107F108023260FA799A71E9
:103D3800012523F0A3F82B46FFF75EBA30460DF0B5
:103D4800BBFD7E4FF88130460DF0B6FD0125B881E8
:103D58002B46FFF751BA30460DF0AEFD784F38824A
:103D680030460DF0A9FD788230460DF0A5FD0125FD
:103D7800B8822B46FFF740BA3B467A1C326013F8EC
:103D8800020B3360FB1C79783360BA7816F016FEA4
:103D980000287FF4D8A94FF0FF352B46FFF72CBA3F
:103DA8003B467A1C3260674A13F8021B1170336075
:103DB800624A7B789370FB1C3360634BBA789A70C5
:103DC80001252B46FFF718BA604B614918684E2247
:103DD80001252CF0C1FE2B46FFF70EBA3A467B1C94
:103DE80033605C4B12F8021B197032607A785A7093
:103DF800FA1C3260BA789A7030460DF05DFD564B69
:103E08000125D8802B46FFF7F7B930460DF054FD51
:103E1800514F388030460DF04FFD788030460DF018
:103E28004BFD0125B8802B46FFF7E6B9DFF838814E
:103E380098F80030002B3FF486A9484F00253046FB
:103E48000DF03AFD12F074F898F80030A7EC010A6A
:103E580001359D42F3DBFFF776B90D2B9BD17B1C17
:103E680033603D78072D96D8DFF8008130460C275F
:103E78000DF022FD07FB05F708EB0705A880304683
:103E88000DF01AFDE88030460DF016FD33682881E4
:103E98001A46591C316012F8021BA97232605B780D
:103EA800EB7230460DF0F1FC012548F807002B466F
:103EB800FFF7A2B97B1C33603878060600F19D85B0
:103EC8001A4B1B78DD073FF53EA9032828BF0020C1
:103ED800012501F031F92B46FFF78EB9134B1B78FA
:103EE800D8073FF530A9012501F0C4FB01F0E8F936
:103EF8002B46FFF781B90D4B1B78DA073FF523A94D
:103F0800174A1378012543F0040313702B46FFF773
:103F180073B9064B1B78D9073FF515A9114B4FF418
:103F2800C87201251A802B46FFF766B9A8560020EB
:103F3800545D0020B0270020BC5800202C510020E0
:103F480010650020E85100203C5100208C440020DE
:103F5800BC25030824510020DC300020D05A002062
:103F6800706A0020BA700020746F0020FC5700208F
:103F7800092B7FF710AFDFF8F0833B467A1CD8F89F
:103F88000050326013F8022B2A7033607B78AB70D4
:103F9800FB1C3360BB78642BA8BF64233A1D6B718C
:103FA8003260FB78642BA8BF64237A1DAB71326042
:103FB8003B79EB71BB1D33607B79642BA8BF64230D
:103FC800FA1D2B723260BB79EB7007F1080333607E
:103FD800FB792B7130460DF06FFC7268336868818D
:103FE800D11A00290CDD591CD8F800003160521A8A
:103FF800002A1978417203DD9A1C32605B7843709D
:1040080001252BF037FA2B46FFF7F6B8C54B186891
:10401800FB1C02462137991E316013F8031C1170EE
:10402800591E316013F8021C5170336013F8011CDB
:10403800917003339F4202F10302ECD111F048FE64
:10404800FFF781B8C3F34705122D3FF6A4AEB5B10B
:1040580012AB0DF1060803EB4507C146423F304657
:104068000DF02AFC29F8020F4F45F8D1AE4B38F86D
:10407800022F23F8022FC845F9D1112D09D8AB4AD0
:104088006B00023B13440021223223F8021F9A429C
:10409800FBD1A74A01231D461370FFF7ADB87B1C5F
:1040A800A44933600A783B78002A40F04684042209
:1040B8000A70A14A9B00138001F008FF9F4B01255D
:1040C80098612B46FFF798B89D4F002330463B6018
:1040D8000DF0DBFB012538602B46FFF78DB87B1C04
:1040E80033603B78002B00F093844FF400400125A7
:1040F8000FF056F82B46FFF77FB8924B1B7813F05A
:1041080001017FF448AE7B1C33603878012510F03C
:1041180011FC2B46FFF770B83B467A1C326013F847
:10412800025B3360FB1C78783360B978002D00F0AF
:10413800C284012D7FF407A810F0BCFC2B46FFF7C2
:104148005BB83B467A1C32607F4A13F8021BD17079
:1041580033607E4A7B785371FB1C33607C4BBA78A2
:10416800DA7001252B46FFF747B87B1C794D336081
:104178003B782B7230460DF09FFBA88330460DF03C
:104188009BFB288330460DF097FB32686883531CED
:1041980033601278EA747268D31A032B00F35284DE
:1041A8003368D11A052900F33C84D21A002A7EF715
:1041B800CAAF5A1C32601B7885F8213001252B467E
:1041C800FFF71AB87B1C3360634938780870D21A35
:1041D800002A7EF7B8AFBB1C33607B78003318BF6A
:1041E800012301254B702B46FFF706B87B1C336073
:1041F800594B3A78DFF874811A700023C8F80030F8
:1042080030460DF042FB3268D8F800305149534D22
:104218000343501CC8F80030306013780B723046E6
:104228000DF04AFB286030460DF046FB68603046CA
:104238000DF042FBA86030460DF03EFB30460DF015
:104248003BFBFEF780BF464B07F10802013737609A
:1042580017F8011C03F8011FBA42F7D1FEF773BF24
:104268003B46791C31603F4913F8020B8870336074
:104278007878487093423EF466AFFB1C33602F4B4E
:10428800BA781A7201252B46FEF7B6BF0722B3FB90
:10429800F2F2C2EBC2055B1B7FF47DADD2B202F134
:1042A800FF395FFA89F9002A3EF44DAFDFF8C0A064
:1042B80009F101091D4651460AF1080B28E09AF94F
:1042C8000A209A427FF467ADD84688F80230304613
:1042D80001910DF0F1FA3368A8F800001A46581C4D
:1042E800306012F8020B88F8030032605A7888F8B8
:1042F8000420DA1C32609A7888F806201F1D37607F
:104308000135DB7888F80530A94501993EF41BAFE3
:104318007B1C336097F900309AF902209A42CED17B
:104328008846D2E78C4400201A5500201C550020EE
:10433800185500206C320020286A0020B027002081
:10434800A8590020A85600202C5100201C6B0020E2
:104358003C510020A85100206C51002060410020F1
:10436800A75100204C51002090440020D44D00203B
:10437800D45100207B1C33603B780E2B3FF60BADED
:10438800BA1C3260787803283FF605ADAD4906229D
:1043980002FB03F28B18FD1C58713560B8788854FD
:1043A8003A1D3260FA785A707A1D32603A799A70FA
:1043B800BA1D32607A79DA70FA1D3260BA791A71E8
:1043C80001252B46FEF718BF7B1C33603D78132D63
:1043D8003FF6E1ACBB1C336078782AF0D1FD0028A9
:1043E8003FF4D9AC984B027805EB8505F91C5A5572
:1043F80031605A19B9785170391D3160F978917066
:10440800791D31603979D17003F1640202E0053316
:104418009A4208D019780029F9D19878D978884231
:10442800F5D24FF00108894B88F00108012583F87F
:1044380000802B46FEF7E0BE854B1B68002B3EF440
:1044480082AE1AF061FAFF283EF47DAE30460DF0D8
:1044580033FA3F2840F216837E4F00253D703368BB
:104468007268B880D21A012A7EF76DAE1A46591CB6
:10447800316012F8021BB97012A8326000225D7810
:1044880000F8402D1AF012FA9DF80830AB423EF4BD
:104498005AAE28461AF02EFAFEF755BE6E4B1B7818
:1044A800012B3EF650AE39467B1C3360DFF8C481E1
:1044B80011F8023B88F802303160FB1C78783360D1
:1044C800D31A012BB97840F3EA8230460DF0F4F99B
:1044D8000125A8F800002B46FEF78EBE7B1C336032
:1044E80097F80080B8F1110F3FF655ACBB1C33604C
:1044F8005A4D7B7805F8183030460DF0DDF940F656
:10450800CA039842A8BF184640F2EE23984205EB2A
:104518004801B8BF18460125A0F2EE222B46192003
:1045280092FBF0F24A70FEF767BE3B467A1C326097
:104538004B4D13F8022B2A7133607B786B71304630
:104548000DF0BAF9336828805A1C32601B78AB71B9
:1045580030460DF0B1F9336868805A1C32601B7818
:10456800EB71FEF7F0BD7B1C33603E4DDFF8088130
:104578003B7888F8053030462F680DF09DF938846F
:1045880030462F680DF098F972683368F883D11AAD
:10459800072900F3E281D11A032900F32182D21AF4
:1045A800002A05DD591C2A6831601B7882F82630FC
:1045B80000F0E8FD1CF032FB2B4B1B68002B00F0D1
:1045C800E3812868012510F0F3FF2B46FEF714BE9F
:1045D8003B467A1C3260DFF8A08013F8022B88F87B
:1045E80002203360214A7B781370FB1C3360204D16
:1045F800BB782B713B1D3360FB78092BA8BF0923BF
:104608003046AB700DF058F9336872682880D11ABB
:10461800012905DD30460DF04FF933687268E881ED
:104628009A4240F04E8200F0ADFD336872689A42BB
:104638003EF489AD5A1C32601B78EB7001252B467D
:10464800FEF7DABDB45900205C5F0020CC200020C2
:10465800AC560020B0560020644900208860002035
:10466800F43000208C4400205451002020510020B8
:1046780010650020726A0020E851002030460DF0D5
:104688001BF930460DF018F930460DF015F9304693
:104698000DF01DF93368C24D1946581C2A68306060
:1046A80011F8020B82F82C003160597882F8361024
:1046B800D91C31609B7882F8373030460DF007F905
:1046C80030460DF004F930460DF001F930462F68F8
:1046D8000DF0F2F8788730462F680DF0EDF8336862
:1046E80072683887D11A01290ADD591C2A68316095
:1046F8001B7882F82E3030460DF0E9F8336872687E
:10470800D31A032B00F31E81286897E47A1C3260C1
:104718003D781F2D3FF63FAB052B7FF43CAB304671
:104728000DF0B3F89F4B43F82500012516F0B8F9B2
:104738002B46FEF761BD7B1C33609B4B3A785A755C
:1047480001252B46FEF758BD964D05F1400730462A
:104758000DF0B2F83368A5F88000591C1A4631608C
:1047680012F8021B85F8821032605B7885F8833076
:104778000435AF42EBD1FEF7E6BC30460DF09CF8AD
:104788008A4F386030460DF097F8786030460DF063
:1047980093F80125B8602B46FEF72EBD844F002301
:1047A8003B6030460DF071F83B68012503433B60E0
:1047B8002B46FEF721BD7F4A102B4FF0000128BF82
:1047C8001023116051609160D1601174002B3EF488
:1047D800BAAC3168013A0B440131316011F8010C6F
:1047E80002F8010F8B42F7D1FEF7ADBC7B1C33609A
:1047F8003B780A2B42D030460DF069F830460DF070
:1048080066F830460DF063F8FEF79DBC3B467A1C0F
:104818003260694D13F8022B6A7033607B782B7015
:10482800FB1C3360BB78AB7030460DF045F833683D
:104838002881591C1A46316012F8021B69713260CE
:104848005B78AB7101252B46FEF7D6BC5A1C32604B
:1048580013F8022B59493360FF2A0A703EF4EAAE76
:1048680022680125531923602B461070FEF7C4BC3B
:1048780030460DF021F8524FFEF786BDBB1C336061
:10488800504B7A781A70FA1C3260BA785A703A1D0E
:104898003260FA789A7001252B46FEF7ADBCBB1C36
:1048A80033607D78022D3FF676AA30460DF004F885
:1048B800454B03EB45034FF0FF35A3F856002B4655
:1048C800FEF79ABCBB1C3360404B7A781A70FB1C0D
:1048D8003360DFF8F480BB7888F855303B1D3360CF
:1048E800FB7888F8543030460CF0E6FFA8F8500002
:1048F80030460CF0E1FF30460CF0DEFF96E80C0085
:104908009B1A012BA8F852007EF71DAC30460CF01C
:10491800D3FF0125A8F85A002B46FEF76DBC2A4B99
:104928000030984418BF0120012588F85E002B4606
:10493800FEF762BC4A46FEF7C2BE042A7EF403AC08
:10494800FFF7B7BB30462F680CF0B6FF78863046C5
:104958002E680CF0B1FFB086D6E630460CF0ACFFFE
:10496800A8F80A0030460CF0A7FFA8F80C0030465B
:104978002F680CF0A1FF788430462F680CF09CFF5C
:1049880033687268B88406E611481249124A134B14
:10499800036001250B6013602B46FEF72DBC00BF9A
:1049A8008C44002070370020A8510020604100206E
:1049B800D44D00202A6A002024440020B02700207B
:1049C8001C5100200D480020F4680020A05400204D
:1049D800182F00206C2F0020D42F00208F060108EC
:1049E80030460CF069FFA8F80E0030460CF064FF62
:1049F80033687268A8F81000D1E500F07F0003283A
:104A080028BF0020012510F071F82B46FEF7F4BBF3
:104A1800304A1368012523F4004313602B46FEF740
:104A2800EBBB5A1C32601B78EB7230460CF02DFF42
:104A38003368E8605A1C32601B782B7433687268DC
:104A4800FFF7B3BB30460CF037FFA88430460CF0B4
:104A580033FF33687268E884D11A03297FF7A1AB62
:104A68001A46591C316012F8021BA97732605B782C
:104A780085F8203030460CF01FFF33687268688470
:104A8800FFF78FBBC50800F0070301350133EDB20E
:104A9800114F284619467B701FF0CAFCDEE40F4B05
:104AA8001A88012512FB00F22B4692FBF1F2A8F8B6
:104AB8000020FEF7A1BB012510F098FF2B46FEF75A
:104AC8009BBB5A1C32601B78003318BF012388F83F
:104AD8000730A8E584440020B0560020AA4F0020E3
:104AE80038B50B4C23688BB15A68821A002A0546E0
:104AF80004DA0CE05A68AA1A002A07DB9A682260CE
:104B080018461A6890472368002BF3D138BD38BD82
:104B1800F85E00200D4B04210022890710B40272B0
:104B280003F13C0402D51979815401329C4203F106
:104B3800140308D0072A06DC99798907F3D49C4224
:104B480003F11403F6D15DF8044B70474C42030897
:104B580010B4104C0423214613F001034FF0000257
:104B680001F1140108D10132042A0ED08B7913F017
:104B7800010301F11401F6D002EB820204EB820278
:104B88005DF8044B13790370704703705DF8044BAC
:104B9800704700BF4C4203080123102111224170C5
:104BA8004271037203700371704700BF436A8269E0
:104BB800D154436A0169826B01338B4228BF0023B9
:104BC8004362002A2FD0EFF31181502383F3128818
:104BD800836B1A68D2072CD470B45E686EB9456AC4
:104BE800826A954217D084691444DC600ED9AA1AE7
:104BF8005A608562002280F854201A6842F0010247
:104C0800C9B21A6081F3118870BC70470469A21A8E
:104C18005A608662EEE7012380F85430C9B281F306
:104C2800118870BC7047026D136843F080031360ED
:104C38007047C9B281F31188704700BF426B10B446
:104C480062B1436CC2684469D11A013B615C5DF88A
:104C5800044B08BF13464364C8B27047016A4369EE
:104C6800C4685B5C0131A14228BF114601625DF84E
:104C7800044BD8B2704700BF836B13B190F854004F
:104C88007047836A406A181AB0FA80F04009704782
:104C9800416A836A99420AD3CB1A816B026961B16E
:104CA8004968501E0B4483420AD2C01A70470269F1
:104CB8001144CB1A816B0029F2D1501EC01A7047DB
:104CC80000207047436B43B1426C5B6893422FBF2F
:104CD800981AC0689B1AC0187047C269036A9A423A
:104CE8002FBFD01AC0688018C01A70472B230373CF
:104CF8002A23837000238375704700BF03682DE95A
:104D0800F041DF691FB13B46BDE8F0411847002A72
:104D1800164611DD04460D460E4400E023689B68E4
:104D2800204698470028F9D0236815F8011B1B680E
:104D380020469847AE42F1D1BDE8F08100232322F6
:104D4800027043708370C370704700BF2DE9F0474D
:104D58008C4B1B78DB07074644D58B4B8B4D1C7857
:104D68008B4E012C59D01CD3022C07D189498A4A71
:104D780009881288914201D901241C70EB7AE3B1A9
:104D88002B89D3B1854B1B78BBB116F0A7FB002844
:104D980000F09B802B7B83422CBF012100213170C6
:104DA8000CE07C497E4A098810886A7B801A884210
:104DB800E2DAEB7A0024002BE2D131782A79632AEF
:104DC80006D8022C774E00F0BA803378002B5DD1DC
:104DD800754AAB7A8C4238BF0C461470002B4CD104
:104DE800BDE8F0876B4B694D19885B88E878CB1A6A
:104DF80083EAE3728142A2EBE3721DD32B788B42E4
:104E08001AD3614B1C78E01E012861D967490978DB
:104E180002294FD0012C5E4EA5D15F4A5D49128808
:104E2800687B0988121A914239DD5D4A12888A42E4
:104E3800A4D200241C70A1E7B1EB400FE1DC524B77
:104E48001C78E11E012940F29480022ADEDC5749D1
:104E58004F4E0878DFF84481DFF844C1DFF838E1C5
:104E680000210324022834701C7088F80010ACF864
:104E78000010AEF8001081D11FE0012C71D0022C77
:104E88000BD10720BDE8F04729F0ACBE7068381A8E
:104E9800474B984258DD72709AE7BDE8F0870224C4
:104EA8001C706BE7022AD2DD4049097802294FF0CD
:104EB800040464D13949364E09783E48022ACCBFE9
:104EC80000220122C28081804BE70221317075E700
:104ED800022A9BDC95F800C091FBFCFC0CF1010C4C
:104EE800BCF1080FDFF8B4A0304EA87895F801E0BF
:104EF80096F800802A4CDFF8A090254EA8BF4FF006
:104F0800080C8AF800C01FFA8CFA10FB0AF01EFB86
:104F18000AFE80B2DFF88CA02080A9F800E0002407
:104F28004FF0640EB8F1020F34701C70CAF80440D8
:104F38008AF801E07FF439AF0FFA8CF1BDE73078D9
:104F4800A0B9012377603370C2F164021A4B00FBE9
:104F580002F083FB0023C017A0EBA35064307070ED
:104F680036E70820BDE8F04729F03CBE7368F81A18
:104F78008EE7032C96D10D49097802299AD0044E60
:104F8800FCE600BFA8560020343E00202444002040
:104F9800443E0020A4570020383E0020BA57002085
:104FA800363E00203C3E0020606A002094570020D6
:104FB8007F969800985700206BCA5F6B30B50446FF
:104FC800006D61710368A26823F00103036087B074
:104FD800A379009213F004023DD04FF4805213F0ED
:104FE8000203019244D102934FF480630022039399
:104FF80011F00103059237D1049308238D07694600
:1050080048BF049327F00EFA6079236DA17900F068
:105018000202002A15BF4FF440324FF480324FF499
:105028000034002410F0010F586808BF2246CC074E
:105038004CBF024320EA02025A609A6809074CBF33
:1050480042F0080222F008029A601A6842F001024F
:105058001A6007B030BD13F0020301920BD04FF471
:10506800005513460295C1E7042304930C23C5E7B2
:105078004FF40053B7E70293B8E700BF10B50446F2
:10508800006DA160036823F001030360A37986B073
:1050980013F00402009141D04FF4805213F0020340
:1050A800019244D102934FF4806362790393D1074C
:1050B8004FF000030493059345BF0423049308238A
:1050C8000C236946920748BF049327F0ABF960792F
:1050D800236DA17900F00202002A15BF4FF4403277
:1050E8004FF480324FF40034002410F0010F586858
:1050F80008BF2246CC074CBF024320EA02025A608E
:105108009A6809074CBF42F0080222F008029A6028
:105118001A6842F001021A6006B010BD13F00203CB
:10512800019207D04FF4005113460291BDE74FF4A6
:105138000053B7E70293B8E7022828BF022010B44B
:10514800084C094B207000EB8002C0EBC2020749F3
:105158005DF8044B013003EB4203C0B20B6029F049
:1051680027BE00BF0C550020224800208C44002098
:1051780008B523F0ABFB0CF0D7F8BDE8084023F0E6
:105188008DBB00BF38B5434B5A899989914224BFDA
:1051980000225A81198ADA89914224BF0022DA81D1
:1051A800DA788AB3072A2FD03B493C4D91F853004F
:1051B800012400210A282C709C70D9713DD00C283C
:1051C80065D0DFED377A8ABB364C9FED370AA27877
:1051D800002918BFF0EE407A062A04D8334901EBBB
:1051E800820191ED000A217959B3013A032A4DD879
:1051F800F7EE007A87EE800A2BF082FE2388984229
:1052080028BF1846208038BDD97921B1987804285C
:10521800B8BF04209870204890F853000A280CD092
:105228000C28CED1DFED227A002ACDD0072ACBD0A8
:105238000A282CD1DFED1F7AC6E70A20DFED1E7A97
:10524800C1E79B78154A07EE103A1178B8EEC77A8D
:1052580027EE277A07EE901AF8EEE77A67EE877A54
:10526800B4EEE70AF1EE10FA10DDC0EE077AFDEEB3
:10527800E77A17EE903A102BA8BF1023012BB8BF7E
:105288000123DBB28B4238BF0B46137038BDDFED0C
:105298000B7A99E7E8510020FC51002020510020AA
:1052A8006F120339106500206F120338AC21030810
:1052B8000AD7A3390F506E3A5304E9386F12833A6C
:1052C8002DE9F047AE4FAF4E23F000FBBE421ED291
:1052D800DFF82C83DFF82C934446258862197DB1CA
:1052E8004A450DD2052D0BD933886188C3F30B03CA
:1052F800994200F0E480144625886219002DEFD108
:105308007168304614360BF09BFFBE42E4D39E4AC8
:105318001378A3F1170102290FD99C4911F833001A
:10532800002840F0F880D8000144497829B198490C
:1053380011F83330002B00F01C81964B5A78022A62
:1053480040F2E380002294495A701A789348022A5E
:10535800016000F2D68002EB8201914BC2EBC102E0
:1053680003EB4203998C5A8C8E4C9142236001D3F3
:1053780000225A848C4B9A78042A00F0F18032B9C2
:105388001A88B2F5F07F84BF4FF4F0721A80874D07
:10539800FFF7F8FE2B68864A1A40002A00F0EC80D6
:1053A800DE0700F1D880580400F1D080190700F119
:1053B800C8809A0100F1BF809B0400F1B5801BF002
:1053C800B5FB10B97B4829F0CFF940200BF06EFFF0
:1053D80080200BF06BFF4FF400700BF067FF4FF469
:1053E80000300BF063FF4FF400100BF05FFF4FF03D
:1053F80080600BF05BFF4FF000600BF057FF2AF066
:1054080039F8002130226C482CF037FD206810F064
:1054180009FB6A4B276803F1640102E005339942EE
:105428006DD01A78002AF9D19C78D8788442F5D2C0
:105438006349644B0D79644964480A70644E654C4D
:105448000460C822642111FB0521002259609A607A
:10545800DA601A615A619A61DA6183F8202083F868
:105468002120376012F0F8FE5B4B9FED5C5A1B88D9
:105478005B4A9FED5C6A50795B4906EE903AF8EE1C
:10548800E66A1388C5EE265A07EE103A5388127951
:10549800C1ED005A07EE903AB8EEC77A534BF8EED2
:1054A800E77A18725A7227EE067A67EE867ABDE8AE
:1054B800F04783ED017AC3ED007A23F0EFB9637901
:1054C8009B077FF418AF716894F804A030460BF07E
:1054D800B7FE3388BAEB133F04D01436BE42FFF44C
:1054E800FBAE14E773887068AA1FC3F30B039A42D4
:1054F80004F10601A8BF1A462BF02EFBEDE70122A6
:1055080096E700221A70264B2CE7234902EB420249
:1055180001EB820119E7D8000C186468002C7FF4AD
:1055280003AF17241470FFE631480BF0BFFE40208C
:105538000BF0BCFE43E746F209000BF0B7FE2B6800
:105548003AE72C480BF0B2FE2B6832E72A480BF0FA
:10555800ADFE2B682AE729480BF0A8FE2B6822E746
:105568009A8AB2F57A7FBFF412AF4FF47A729A82B0
:105578000DE718231370E0E643F000732B600FE784
:10558800A8870308488303086C510020DC440308FB
:10559800944003080C5500202E4900209044002018
:1055A800224800208C44002010650020D44D0020A3
:1055B80009600002D4510020E02A00205C5F00202E
:1055C800F4300020F8380020CC200020242B0020C4
:1055D800142B002032510020D0290020C0C9FB48DC
:1055E800B427002017B7D138D4290020F82E00207E
:1055F8000940000201600002092000020860000260
:1056080002F003080000040808B523F05FF90BF066
:105618008BFE23F043F9FFF753FE0120BDE8084055
:1056280029F0C6BB38B50C4C0C4DAC4206D26168AB
:10563800204614340BF004FEAC42F8D3084A094B58
:10564800094C1460002209491A705A700848086009
:10565800BDE8384015F024BA48830308A887030832
:105668008C4400200C550020224800209044002043
:105678002E49002008B5FFF7D5FF23F027F90BF0D6
:1056880053FEBDE8084023F009B900BFF0B50C2966
:105698002BD8DFE801F06F2A2A2A4C2A2A2A2B2A3B
:1056A8002A2A0700046AB2F80CE097881668674D42
:1056B80024F480540462036A4468C16923F40053E3
:1056C80043EA0E3321F4E641A84243EA073341EAAC
:1056D800062100F0B58005F50065A84200F0B0800D
:1056E80092684460C16102640362F0BD046A9689ED
:1056F8009588D2F800E0554F24F480740462036A58
:105708004468C16923F4007343EA062321F0730156
:10571800B84243EA052341EA0E017ED04C4DA84227
:105728007BD092684460C161C2630362F0BD046AC1
:1057380096899588D2F800E0444F24F0100404625A
:10574800036A4468816923F0200321F0807143EAE9
:10575800061321F4E641B84243EA051341EA0E2153
:1057680048D03B4DA84245D092684460816182632D
:105778000362F0BD046A9389B2F804E01768334EF7
:1057880024F001040462056A4468816943EA0E034F
:1057980021F4803125F002059BB221F07301B0425B
:1057A80043EA050341EA070114D0294DA84211D064
:1057B80005F54065A8420DD005F58065A84209D0D9
:1057C80005F58065A84205D092684460816142630E
:1057D8000362F0BDD689158A578A23F0080333433C
:1057E8003D43D68824F4407423F00403ADB2334318
:1057F8002C43E9E7D589178AD68823F0800343EA42
:10580800051324F44064558A23F0400344EA8704CE
:1058180043EA061344EA8504A6E7D589178AD68899
:1058280023F4006343EA052324F44054558A23F4FF
:10583800806344EA071443EA062344EA051470E740
:10584800158A24F4804444EA851449E7002C014071
:105858000034014003682DE9F04F03F13845644EE8
:10586800AD0A0124755D05F01F066D09022D04FAC5
:1058780006F400F0A280032D00F0A480012D52D080
:105888008088B0FA80F4C4F11F04A4B2E50803EBE1
:10589800850504F007042E6AA4000F27A74026EA0E
:1058A80007062E622E6A01F0030702FA04F47A1E34
:1058B8003443012AC1F3810CC1F300182C62C1F3EF
:1058C800411135D9C60700F19780850700F1A380FB
:1058D800440700F1B180020700F1BF80C60600F15D
:1058E800CD80850600F1DB80440600F1E9800206E0
:1058F80000F1F780C60500F10581850500F11381E7
:10590800440500F12181020500F12F81C60400F150
:105918003D81850400F14B81440400F15981020462
:1059280055D4BDE8F08F334D6E6934436C61A7E7F9
:10593800002422464FF0010E4FF0030904E0013223
:10594800102A04F10204ECD00EFA02F636EA000539
:10595800F5D1D3F808A009FA04F5ED430AEA050AD7
:10596800C3F808A0D3F808B00CFA04FA4AEA0B0AFC
:10597800C3F808A0B3F804A01FFA8AFA2AEA0606B0
:105988009E80B3F804A008FA02F646EA0A06B6B200
:105998009E801E682E401E60D3F800A007FA04F609
:1059A80046EA0A061E60D3F80CA001FA04F605EAD6
:1059B8000A0A46EA0A05DD60C1E70E4DAE693443BE
:1059C800AC615DE70B4DEE693443EC6158E71A684A
:1059D80022F040421A601A6842EA87771F60DA6844
:1059E80022F0404242EA8171D960BDE8F08F00BFE1
:1059F80044420308001002401A6822F003021A60A9
:105A08001A683A431A60DA6822F003020A438507E3
:105A1800DA607FF55DAF1A6822F00C021A601A6826
:105A280042EA87021A60DA6822F00C0242EA81022E
:105A38004407DA607FF54FAF1A6822F030021A6027
:105A48001A6842EA07121A60DA6822F0300242EA5B
:105A58000112DA6002077FF541AF1A6822F0C0022E
:105A68001A601A6842EA87121A60DA6822F0C002DD
:105A780042EA8112C606DA607FF533AF1A6822F46B
:105A880040721A601A6842EA07221A60DA6822F439
:105A9800407242EA01228506DA607FF525AF1A686E
:105AA80022F440621A601A6842EA87221A60DA68A9
:105AB80022F4406242EA81224406DA607FF517AF99
:105AC8001A6822F440521A601A6842EA07321A60C9
